:10000000000004201920010001200100032001004C
:100010000520010007200100092001000000000068
:100020000000000000000000000000000B200100A4
:100030000D200100000000000F2001001120010030
:100040001320010013200100754D0100F15801003B
:1000500013200100132001006D4C0100132001004A
:1000600013200100132001001320010013200100C0
:1000700013200100132001001320010013200100B0
:1000800013200100132001001320010013200100A0
:100090001320010013200100132001001320010090
:1000A0001320010013200100132001001320010080
:1000B00013200100132001000000000000000000D8
:1000C0001320010013200100132001000959010031
:1000D0001320010013200100132001001320010050
:1000E0001320010013200100132001000000000074
:1000F0000000000013200100000000002159010051
:1001000000000000000000000000000000000000EF
:1001100000000000000000000000000000000000DF
:1001200000000000000000000000000000000000CF
:1001300000000000000000000000000000000000BF
:1001400000000000000000000000000000000000AF
:10015000000000000000000000000000000000009F
:10016000000000000000000000000000000000008F
:10017000000000000000000000000000000000007F
:10018000000000000000000000000000000000006F
:10019000000000000000000000000000000000005F
:1001A000000000000000000000000000000000004F
:1001B000000000000000000000000000000000003F
:1001C000000000000000000000000000000000002F
:1001D000000000000000000000000000000000001F
:1001E000000000000000000000000000000000000F
:1001F00000000000000000000000000000000000FF
:020000021000EC
:10200000FEE7FEE7FEE7FEE7FEE7FEE7FEE7FEE7A8
:10201000FEE7FEE700F002B8FFF7FCBF0F484FF005
:102020000701884385460E4880470E48016841F401
:1020300070010160BFF34F8FBFF36F8F00F01AB8CC
:1020400009480A490A4A884207D0521A05D003783B
:1020500001300B700131013AF9D1704700000420C2
:10206000DD3A010088ED00E09CF402000000002051
:102070000000002039493A480A1A02D00722914349
:102080008D46384938480A1A06D00722914381F311
:102090000988022282F3148834483549354A00F011
:1020A0003EF835483549364A00F039F83548364962
:1020B000364A00F034F836483649374A00F02FF8EF
:1020C00036483749374A00F02AF837483749384AFE
:1020D00000F025F837483849384A00F020F83848E9
:1020E0003849002200F033F837483849002200F020
:1020F0002EF837483749091A1DF085F8364A9047B7
:1021000024482549884205D00268043003B490472A
:1021100003BCF7E700200021304A9047FEE78842E1
:1021200014D0521A12D003460B4313430324234204
:1021300006D1036804300B600431043AF9D17047CA
:10214000037801300B700131013AF9D170478842B0
:1021500002D002700130FAE770470000000004204E
:1021600000E0032000000420000004203C080300DD
:1021700000000020AC000020E0210100E02101006F
:102180006CF402003C080300000000200000002066
:102190009CF402009CF402009CF402009CF40200F7
:1021A0009CF402009CF402009CF402009CF40200E7
:1021B00039080300E8080300AC000020AC00002050
:1021C000AC000020680F0020680F0020680F00207E
:1021D0007C0F00207C2F00204120010015D602003A
:1021E00082B0204B0193019B02221A61019B0222C3
:1021F0005A61019B1C4A9A61019B1C4ADA61019B4E
:102200004FF480621A62019B00229A62019B0022B5
:102210005A62019B0022DA62019B134A9A64019B75
:10222000134ADA64019B10221A65019B00229A6509
:10223000019B00225A65019B0022DA65019B07334E
:102240000C4A10681860019B0B4A1068186091884E
:10225000927999809A71019B20229A7100BF02B0F5
:10226000704700BFAC0000209CF402002401002055
:1022700024050020A8F40200ACF4020000B589B0E7
:1022800003900291019200230693039BDB68059360
:10229000039B1B690493049A059B9A4205D9049AEF
:1022A000059BD31A013B079307E0039B9A680499A7
:1022B000059BCB1A1344013B0793039B9A68059B2C
:1022C000D31A079A934228BF13460793079A019B94
:1022D000934228BF13460793039B5A68059B1344F8
:1022E000079A029918461CF0F9FF069A079B1344B7
:1022F0000693029A079B13440293019A079BD31AF1
:102300000193059A079B13440593039B9B68059AC9
:102310009A4201D100230593039B059ADA60019B41
:10232000002BB5D1069B184609B05DF804FB00B53B
:1023300089B0039002910192039BDB680793039B92
:102340009A68079BD31A0693069A019B9A420ED964
:10235000039B5A68079B1344019A029918461CF084
:10236000BDFF079A019B1A44039BDA601AE0069BA3
:102370000593039B5A68079B1344059A02991846D4
:102380001CF0ACFF019A069BD31A0593039B586877
:10239000029A069B1344059A19461CF09FFF039B63
:1023A000059ADA6000BF09B05DF804FB86B00190C1
:1023B000019B1B690493019BDB680393049A039BB5
:1023C0009A4208D8019B9A68039BD21A049B134433
:1023D000013B059304E0049A039BD31A013B059348
:1023E000059B184606B0704700B589B0039002916E
:1023F0000192029B0693039B5A1C13465B001344F5
:10240000DB00204A13440593059B5B69022B29D00E
:10241000022B2ED8002B02D0012B13D029E00598D7
:10242000FFF7C4FF0490049A019B9A4202D2002352
:10243000079321E0019B0793019A06990598FFF7FE
:1024400076FF19E00598FFF7B1FF0490019A049B0D
:10245000934228BF13460793079A06990598FFF7FA
:1024600066FF09E0019A06990598FFF707FF0790B4
:1024700002E00023079300BF079B184609B05DF8F0
:1024800004FB00BFAC00002000B587B003900291B0
:1024900001920D4B1B78002B01D1FFF7A1FEEFF34A
:1024A00011834FF0200181F311880593019A02995D
:1024B0000398FFF799FF0490059B83F31188049B11
:1024C000184607B05DF804FBAC00002000000000D7
:1024D000F0B599B01B481BF092F800F027FD01F011
:1024E0004DF8022000F0D9FF17481AF0D5FC03463A
:1024F000B3F1FF3F03D115481BF081F8FEE700BFA1
:102500001AF08EFE0346002BFAD000201AF052FD7E
:102510000346B3F1FF3F03D10D481BF070F8FEE70F
:102520000C481AF05BFD0346002B03D00A481BF051
:1025300066F8FEE7074B1B78052B11D107481AF008
:1025400061FD10E0B4F40200ACF50200C8F4020032
:10255000D8F4020044000020ECF402003400002013
:10256000C3481AF04FFD44F201001AF05FFD44F237
:1025700001001AF071FD03201AF008FD00231793E3
:1025800000201AF037FE00201AF020FE00201AF07A
:1025900009FE0023B74A0021B74800F063FAB64BA2
:1025A0001B6803F48043002B00F08A814FF48040C5
:1025B0001AF0E4FE00201AF021FF0346ADF85A306D
:1025C000BDF85A30182B06D8BDF85A3000221946EB
:1025D000AA481AF0B7FEA94B00229A700A22A8490D
:1025E000A6481CF01BFE0346002BC9D100F0D3F90E
:1025F00002460B46A349C1E90023A24BD3E90023BD
:10260000A149541843F100054FF000024FF00003B8
:10261000220A42EA05622B0A1346159315981AF00E
:1026200083FD4FF4FA701AF079FEDC201AF0CEFD2B
:1026300005201AF0DFFD954B1A78954B9A70002211
:1026400093490F201AF01EFD012200210F201AF0DD
:1026500035FD03201AF050FD1490149BB3F1FF3F99
:1026600000F032810023834A0021834800F0FAF908
:10267000864B1B780133DAB2844B1A707E4B1B6891
:1026800003F48043002B00F0E4804FF481401AF003
:1026900075FE00201AF0B2FE0346ADF85A30BDF8C0
:1026A0005A30182B06D8BDF85A3000221946734804
:1026B0001AF048FE714B00229A700A2275496F4841
:1026C0001CF0ACFD0346002B7FF45AAF00F024F958
:1026D00002460B467049C1E9002300F05CF902464E
:1026E0000B466E49C1E9002305AB19466C4800F062
:1026F00092F904AB19466B4800F08DF903AB19460B
:10270000694800F088F95F4BD3E90023134613931F
:10271000614BD3E9002313461293604BD3E90023A6
:1027200013461193049A059BD31A18461BF08EFB8F
:1027300002460B46CDE90E23119A129BD31A184676
:102740001BF084FB02460B46CDE90C23039A049B45
:10275000D31A18461BF07AFB02460B46CDE90A2332
:10276000129A139BD31A18461BF070FB02460B46B5
:10277000CDE90823DDE90C23DDE90E011BF0CCF8DF
:1027800002460B4616461F46DDE90823DDE90A012D
:102790001BF0C2F802460B46304639461BF0B8F82B
:1027A00002460B4616461F46DDE90C23DDE90E0105
:1027B0001AF08EFF02460B4610461946DDE90A2341
:1027C0001AF086FF02460B4610461946DDE908233B
:1027D0001AF07EFF02460B46304639461BF034F9AC
:1027E00002460B46104619461BF09CFA02460B4661
:1027F000CDE90623DDE906011BF0F4FA18A3D3E9BD
:1028000000231BF089F802460B462849C1E9002342
:10281000264BD3E9000114A3D3E900231BF07CF875
:1028200002460B462249C1E90023179B0133179347
:102830001F4BD3E90023CDE90023179A1D491E48F9
:102840001BF062FC1C481AF0DAFE0A2000F025FE9C
:1028500096E61A481AF092FD92E600BFAFF30080A8
:10286000FA48CE3B1835B13D0000001319DDB141E7
:102870003C00002000D027345005002038050020FF
:10288000000000205805002068816D0334050020F9
:102890000C0000201C0000206005002068050020BE
:1028A00042050020460500204A0500207005002052
:1028B0007805002000F502008405002000902734F0
:1028C00002481AF05BFD5BE600BF59E60090273432
:1028D00000B583B000238DF807300B4B0B4A1A600C
:1028E0009DF8073001338DF807309DF80730012B34
:1028F00005D04FF4D472064906481AF0A1FE00BF75
:1029000003B05DF804FB00BF80050020D124010066
:1029100014F5020088F50200F0B585B04FF0000212
:102920004FF00003CDE902236B4618461AF010FC65
:1029300004238DF8073024E0DDE902014FF00002A6
:102940004FF000030B0243EA10630202CDE90223B9
:102950009DF9073010336B4413F8103CDBB20022B2
:102960001C461546DDE9022342EA040643EA050750
:10297000CDE902679DF90730DBB2013BDBB28DF890
:1029800007309DF90730002BD6DADDE90223104627
:10299000194605B0F0BDF0B585B04FF000024FF01C
:1029A0000003CDE902236B46002118461AF0E4FB30
:1029B00004238DF8073024E0DDE902014FF0000226
:1029C0004FF000030B0243EA10630202CDE9022339
:1029D0009DF9073010336B4413F8103CDBB2002232
:1029E0001C461546DDE9022342EA040643EA0507D0
:1029F000CDE902679DF90730DBB2013BDBB28DF810
:102A000007309DF90730002BD6DADDE902231046A6
:102A1000194605B0F0BD84B001900091009B0022E2
:102A20001A6000238DF80F3014E0009B1A689DF89F
:102A30000F3001990B441B7819469DF80F30DB00CD
:102A400001FA03F31A44009B1A609DF80F3001331A
:102A50008DF80F309DF80F30032BE6D900BF00BF73
:102A600004B0704700B587B00390029101920093C3
:102A70000023059300230493019B002B14D00AE04C
:102A8000009B002B07D01AF0A3FC0490049A009B33
:102A90001340002B15D11AF085FC0590059A019B77
:102AA0001340002BECD00DE0009B002B0AD000BFA0
:102AB0001AF08EFC0490049A009B1340002BF7D070
:102AC00000E000BF039B002B02D0039B059A1A6015
:102AD000029B002B02D0029B049A1A6000BF07B031
:102AE0005DF804FB00B583B0094B1B88184602F063
:102AF0001BF803460193019B002B04D0044B1B8859
:102B0000184601F0E9FF019B184603B05DF804FB8D
:102B10006200002000B583B00190019B002B05D01E
:102B2000044B1B880121184601F06AFF00BF03B067
:102B30005DF804FB6200002000B585B00190019BA8
:102B4000002B0AD0074B43F001030393019B9B0129
:102B50000293039B0298984700E000BF05B05DF820
:102B600004FB00BFC0F5020000B583B001900198DE
:102B700000F093FC00BF03B05DF804FB00B583B028
:102B800001900198FFF7D8FF00BF03B05DF804FB88
:102B900000B585B00190019B002B0AD0074B43F094
:102BA00001030393019B9B010293039B02989847A7
:102BB00000E000BF05B05DF804FB00BF60F6020056
:102BC00082B00190019B1B681F2B02D84FF0A043DD
:102BD00006E0019B1B6803F01F02019B1A60024B79
:102BE000184602B0704700BF0003005000B585B022
:102BF0000190084611461A4603468DF803300B46ED
:102C00008DF8023013468DF8013001AB1846FFF7FE
:102C1000D7FF03909DF803209DF802305B001A4314
:102C20009DF801309B001A439DF818301B0242EAC0
:102C300003019DF81C301B04019A1943039B02F504
:102C4000E07243F8221000BF05B05DF804FB82B0CB
:102C50000190019B0722C3F8002500BF02B0704716
:102C600082B00190019B0022C3F8002500BF02B092
:102C7000704700B583B00190019B0433184602F001
:102C800067FC00BF03B05DF804FB00B58FB0039094
:102C90000291009313468DF8073000230D93029B99
:102CA00009939DF807300A93009B0B939DF84030E1
:102CB0000C93039B043309A90022184602F0AAFDD5
:102CC0000D900D9B18460FB05DF804FB00B583B066
:102CD0000190019B002B0AD04FF47A70FFF758FF48
:102CE000019B013B0193019B002BF5D100E000BF4C
:102CF00003B05DF804FB000000B585B0274B1B68EE
:102D00009B680393039B4FF080421A61039B4FF033
:102D1000A0525A61039B002283F82C20039B02934C
:102D2000039B1C330193029B03221A70029B012216
:102D30001A73029B1A4A5A60029B02221A72019B62
:102D40002F221A70019B2D225A70019B2E229A70FD
:102D5000019BFF22DA70019B02221A71019BFF2264
:102D60005A71019B4FF080429A60019B00221A73B6
:102D7000019B00225A730B4A6B4612681146198058
:102D80000233120C1A706B4619462C2001F074FDA8
:102D900000F00AF800BF05B05DF804FB7C000020DD
:102DA00000F00240C8F5020000B589B0364B1B6840
:102DB0009B680793079B4FF080421A61079B4FF077
:102DC00000425A61079B002283F82C20079B069340
:102DD000079B1C330593069B02221A70069B012257
:102DE0001A73069B294A5A60069B01221A72059B98
:102DF00007221A70059B25225A70059B26229A707D
:102E0000059BFF22DA70059B03221A71059BFF22A6
:102E10005A71059B4FF080429A60059B00221A73FD
:102E2000059B00225A731A4A02AB12681146198098
:102E30000233120C1A7001238DF8093002AB002204
:102E40001946232001F06CFD0490049B0393039B1F
:102E5000002B04D00F4AAF21039802F0B9FD0021E6
:102E6000232001F0CDFD0C4A01AB126811461980F8
:102E70000233120C1A7001AB19462B2001F0FCFC36
:102E800000BF09B05DF804FB800000200030024064
:102E90004CF60200CCF5020050F6020000B585B0F9
:102EA0000190019B5B6803930398FFF7D0FE00231A
:102EB000184605B05DF804FB00B585B00190019B94
:102EC0005B6803930398FFF7CBFE0023184605B019
:102ED0005DF804FB00B583B0124B1B681846FFF782
:102EE000C8FE104B1B681A690E4B1B685A620D4BCB
:102EF0001B6818460B4B1B6803F11C0100230022C2
:102F000000F044FF0190019B002B04D0064AE7210A
:102F1000019802F05DFD0220FFF7D8FE00BF03B06C
:102F20005DF804FB5C000020CCF5020000B585B024
:102F30001F4B1B681846FFF79CFE1D4B1B685A6908
:102F40001B4B1B685A621A4B1B681846184B1B68B0
:102F500003F11C010023002200F018FF0390039BE3
:102F6000002B04D0134AFB21039802F031FD104BD3
:102F70001B681B7F18460023019303230093002343
:102F800000220121FFF732FE094B1B685B7F1846C8
:102F90000023019303230093002301220121FFF763
:102FA00025FE0220FFF792FE00BF05B05DF804FB8E
:102FB0005C000020CCF5020000B589B004910393B9
:102FC0000346ADF816301346ADF81430BDF81620A0
:102FD000BDF81430134401330793079BC82B01D964
:102FE00004235AE000BF2F4B1B6893F82C30002BB2
:102FF000F9D12C4B1B6893F82C30112B01D11123E4
:103000004BE0284B1B68112283F82C20254B1B68B2
:103010001846FFF743FF244B0693BDF816301A46B7
:10302000049906981CF05AF9BDF81630069A134414
:103030000693BDF814301A46039906981CF04EF911
:10304000BDF81430069A134406939DF82820069B79
:103050001A70164B1B88184601F057FC144B0022BF
:103060001A70104B1B681846079BDAB2079BDBB23D
:103070000093104B0C49FFF708FE0A4B1B681846DB
:10308000FFF71AFF094B1B88184601F03EFC054B61
:103090001B68002283F82C200023184609B05DF835
:1030A00004FB00BF5C000020280600206000002018
:1030B00024060020F006002000B589B00491039397
:1030C0000346ADF816301346ADF81430BDF816209F
:1030D000BDF8143013440793079BC82B01D9042370
:1030E00051E000BF2A4B1B6893F82C30002BF9D11C
:1030F000274B1B6893F82C30112B01D1112342E090
:10310000234B1B68112283F82C20214B1B68184687
:10311000FFF7C4FE1F4B0693BDF816301A460499FC
:1031200006981CF0DBF8BDF81630069A1344069397
:10313000BDF814301A46039906981CF0CFF8164BC8
:103140001B88184601F0E1FB144B00221A70104B4B
:103150001B681846079BDAB2079BDBB20093104B43
:103160000C49FFF792FD0A4B1B681846FFF7A4FEB7
:10317000094B1B88184601F0C8FB054B1B68002251
:1031800083F82C200023184609B05DF804FB00BF2B
:103190005C0000202806002060000020240600209B
:1031A000F006002000B589B0049103930346ADF802
:1031B00016301346ADF81430BDF81620BDF81430A3
:1031C00013440793079BC82B01D9042363E000BF76
:1031D000334B1B6893F82C30002BF9D1304B1B6814
:1031E00093F82C30112B01D1112354E02C4B1B6888
:1031F000112283F82C202A4B1B681846FFF74EFE3D
:10320000284B0693BDF816301A46049906981CF010
:1032100065F8BDF81630069A13440693BDF81430CD
:103220001A46002106981CF08BF8BDF81620BDF850
:103230001430134407931C4B1B88184601F065FBA0
:103240001A4B00221A70164B1B681846079BDAB2FD
:10325000079BDBB20093164B1249FFF716FDBDF832
:103260001630134A13440693BDF814301A460699D3
:1032700003981CF033F80A4B1B681846FFF71CFE36
:10328000094B1B88184601F040FB054B1B680022C8
:1032900083F82C200023184609B05DF804FB00BF1A
:1032A0005C0000202806002060000020240600208A
:1032B000F006002000B585B00190019B002B0AD0DC
:1032C000074B43F001030393019B9B010293039B74
:1032D0000298984700E000BF05B05DF804FB00BF0E
:1032E000F0F6020082B00190019B1B681F2B02D8F0
:1032F0004FF0A04306E0019B1B6803F01F02019BF7
:103300001A60024B184602B0704700BF000300501D
:1033100000B585B00190084611461A4603468DF85F
:1033200003300B468DF8023013468DF8013001ABA7
:103330001846FFF7D7FF03909DF803209DF8023051
:103340005B001A439DF801309B001A439DF818302A
:103350001B0242EA03019DF81C301B04019A194329
:10336000039B02F5E07243F8221000BF05B05DF840
:1033700004FB00B585B00390002301930023009364
:103380000023012201210398FFF7C2FF00BF05B00F
:103390005DF804FB00B585B003900B468DF80B304B
:1033A0009DF80B30002201920022009200220021A1
:1033B0000398FFF7ADFF00BF05B05DF804FB00B553
:1033C00085B0019001AB1846FFF78CFF0390019B7D
:1033D000012202FA03F31946039800F035F800BF02
:1033E00005B05DF804FB00B585B0019001AB18464F
:1033F000FFF778FF0390019B012202FA03F31946BD
:10340000039800F02BF800BF05B05DF804FB00B591
:1034100085B0019001AB1846FFF764FF0390039855
:1034200000F00AF80246019B22FA03F303F00103BD
:10343000184605B05DF804FB82B00190019BD3F8FB
:103440001035184602B0704782B001900091019B80
:10345000009AC3F8082500BF02B0704782B00190FF
:103460000091019B009AC3F80C2500BF02B0704781
:1034700000B583B00190019B002B0AD04FF47A7005
:10348000FFF718FF019B013B0193019B002BF5D136
:1034900000E000BF03B05DF804FB00B583B001900D
:1034A0000198FFF7E5FF00BF03B05DF804FB0000E3
:1034B00000B583B001F07CF90190019B0093009B63
:1034C000002B04D0044A4721009802F081FA00BF83
:1034D00003B05DF804FB00BF68F6020000B583B0DE
:1034E00001900B468DF8033000F068F800BF03B080
:1034F0005DF804FB00B585B01D4A6B4612681146A5
:1035000019800233120C1A7001238DF801306B46BA
:10351000184A19462A2001F003FA0390039B0293EC
:10352000029B002B04D0144A6021029802F050FA4A
:1035300000212A2001F064FA2B20FFF71AFF6B46C6
:103540000C4A1946272001F0EBF90390039B0193E5
:10355000019B002B04D0084A6721019802F038FA39
:103560000021272001F04CFA00BF05B05DF804FBF4
:10357000E4F60200DD34010068F6020008B52820F8
:10358000FFF7F7FE2820FFF72EFF0220FFF770FF5E
:1035900000212820FFF7FEFE0220FFF769FF00BF91
:1035A00008BD08B52B20FFF70AFFC820FFF782FEF1
:1035B0002B20FFF718FF00BF08BD000008B506E08C
:1035C000074B1B68002B02D0054B1B68984700F087
:1035D00009F80346002BF3D100BF00BF08BD00BFB0
:1035E000B807002008B5044B1B881846FFF70FFFEB
:1035F0000346184608BD00BF6200002082B001905B
:10360000019B1B681F2B02D84FF0A04306E0019BD3
:103610001B6803F01F02019B1A60024B184602B0A0
:10362000704700BF0003005000B585B00190084608
:1036300011461A4603468DF803300B468DF80230CA
:1036400013468DF8013001AB1846FFF7D7FF039002
:103650009DF803209DF802305B001A439DF801306D
:103660009B001A439DF818301B0242EA03019DF8A3
:103670001C301B04019A1943039B02F5E07243F8C6
:10368000221000BF05B05DF804FB00B585B00390C3
:1036900000230193002300930023012201210398BA
:1036A000FFF7C2FF00BF05B05DF804FB00B585B0B1
:1036B00003900B468DF80B309DF80B3000220192E1
:1036C00000220092002200210398FFF7ADFF00BF07
:1036D00005B05DF804FB00B585B0019001AB18465C
:1036E000FFF78CFF0390019B012202FA03F31946B6
:1036F000039800F02AF800BF05B05DF804FB00B5A0
:1037000085B0019001AB1846FFF778FF0390019B4D
:10371000012202FA03F31946039800F020F800BFD3
:1037200005B05DF804FB00B583B001900091009BEB
:10373000002B03D10198FFF7E2FF02E00198FFF7A9
:10374000CAFF00BF03B05DF804FB82B00190009196
:10375000019B009AC3F8082500BF02B0704782B0F1
:1037600001900091019B009AC3F80C2500BF02B0A4
:103770007047000000B583B00190064A019B1344D6
:103780001B7801211846FFF7CEFF00BF03B05DF89C
:1037900004FB00BFF8F6020000B583B000230193DC
:1037A00005E00198FFF7E6FF019B01330193019BC0
:1037B000032BF6D900BF00BF03B05DF804FB000087
:1037C00000B583B00023019309E0094A019B13442B
:1037D0001B781846FFF759FF019B01330193019BAA
:1037E000032BF2D9FFF7D8FF00BF03B05DF804FB4D
:1037F000F8F6020000B583B0002301930AE0094AFD
:10380000019B13441B7803211846FFF74FFF019BD0
:1038100001330193019B032BF1D900BF00BF03B01B
:103820005DF804FBFCF6020000B583B00190019B3B
:1038300003F00103002B01D0FFF7C2FF019B03F04F
:103840000203002B01D0FFF7D5FF00BF03B05DF8E6
:1038500004FB0000BFF34F8F00BF064BDB6803F48F
:10386000E0620449044B1343CB60BFF34F8F00BFAA
:1038700000BFFDE700ED00E00400FA0582B0124B46
:103880001B680193114B1B680093019B082B17D1F8
:10389000009B032B12D801A252F823F0AD3801008F
:1038A000B1380100B5380100B9380100012308E042
:1038B000012306E0012304E0012302E0012300E0EC
:1038C0000023184602B07047300100103401001088
:1038D00082B0124B1B680193114B1B680093019B34
:1038E000082B17D1009B032B12D801A252F823F00A
:1038F0000139010005390100093901000D390100C4
:10390000012308E0012306E0012304E0012302E093
:10391000012300E00023184602B070473001001078
:103920003401001082B0124B1B680193114B1B68CD
:103930000093019B082B17D1009B032B12D801A2E7
:1039400052F823F055390100593901005D39010061
:1039500061390100012308E0002306E0002304E0B0
:10396000002302E0002300E00023184602B0704765
:10397000300100103401001082B0124B1B6801931B
:10398000114B1B680093019B082B17D1009B032B45
:1039900012D801A252F823F0A9390100AD39010073
:1039A000B1390100B5390100012308E0002306E028
:1039B000002304E0002302E0002300E00023184677
:1039C00002B07047300100103401001082B0124B79
:1039D0001B680193114B1B680093019B082B17D1A7
:1039E000009B032B12D801A252F823F0FD390100ED
:1039F000013A0100053A0100093A0100012308E0FB
:103A0000002306E0002304E0002302E0002300E09E
:103A10000023184602B07047300100103401001036
:103A200082B0124B1B680193114B1B680093019BE2
:103A3000082B17D1009B032B12D801A252F823F0B8
:103A4000513A0100553A0100593A01005D3A01002E
:103A5000012308E0002306E0002304E0002302E045
:103A6000002300E00023184602B070473001001028
:103A70003401001082B0124B1B680193114B1B687C
:103A80000093019B082B17D1009B032B12D801A296
:103A900052F823F0A53A0100A93A0100AD3A01001D
:103AA000B13A0100012308E0012306E0012304E00C
:103AB000012302E0012300E00023184602B0704712
:103AC0003001001034010010024B034A1A6000BF9D
:103AD000704700BF840000200090D00308B5FFF7B6
:103AE000CDFE0346002B0ED04FF080430022C3F8DA
:103AF0000C214FF080430022C3F810214FF0804387
:103B00000022C3F83825FFF7E3FE0346002B76D0EA
:103B10004FF080537D4AD3F80434C2F820354FF07B
:103B200080537A4AD3F80834C2F824354FF08053D2
:103B3000764AD3F80C34C2F828354FF08053734AD4
:103B4000D3F81034C2F82C354FF080536F4AD3F8B5
:103B50001434C2F830354FF080536C4AD3F818341F
:103B6000C2F834354FF08053684AD3F81C34C2F899
:103B700040354FF08053654AD3F82034C2F84435BD
:103B80004FF08053614AD3F82434C2F848354FF0DF
:103B900080535E4AD3F82834C2F84C354FF0805336
:103BA0005A4AD3F82C34C2F850354FF08053574A54
:103BB000D3F83034C2F854354FF08053534AD3F819
:103BC0003434C2F860354FF08053504AD3F838345B
:103BD000C2F864354FF080534C4AD3F83C34C2F8F5
:103BE00068354FF08053494AD3F84034C2F86C35F9
:103BF0004FF08053454AD3F84434C2F87035FFF78C
:103C000091FE0346002B02D0414B424A1A60FFF757
:103C1000B3FE0346002B03D03F4BFB22C3F818250D
:103C2000FFF7D4FE0346002B0AD03C4B1B6823F061
:103C30000F023B4B1B6803F00F03384913430B6023
:103C4000FFF7EEFE0346002B03D0364B4FF4007215
:103C50001A60FFF70FFF0346002B0DD04FF0804393
:103C6000D3F8003403F00103002B05D04FF080435C
:103C70006FF00102C3F800242B4BD3F888302A4A96
:103C800043F47003C2F88830BFF34F8F00BFBFF317
:103C90006F8F00BF4FF01023D3F80032002B05DBED
:103CA0004FF01023D3F80432002B2BDA1F4B0122E4
:103CB000C3F8042500BF1D4BD3F80034002BFAD005
:103CC0004FF010231222C3F8002200BF174BD3F885
:103CD0000034002BFAD04FF010231222C3F8042234
:103CE00000BF124BD3F80034002BFAD00F4B002248
:103CF000C3F8042500BF0D4BD3F80034002BFAD0D5
:103D0000FFF7A8FDFFF7E0FE00BF08BD00C00040C0
:103D10008C5600404881030000F00040E40E004053
:103D2000580200104096024000ED00E000E0014023
:103D300000B589B001900091009B0793019B1B780F
:103D40008DF80830019B5B680393019B9B68DBB295
:103D50008DF81030019BDB680593019B1B69DBB27A
:103D60008DF81830074A079B52F823300649079A06
:103D700051F8221002AA1046984700BF09B05DF81A
:103D800004FB00BFBC070020CC07002010B58AB0A0
:103D90000390029101920093039B1B78099322499F
:103DA000099B019A41F823202049099B009A41F878
:103DB0002320002308931E4B04AC0FCB84E80F0094
:103DC000029B1B788DF81030029B5B788DF81130C8
:103DD000029B9B788DF81230029BDB788DF81330B4
:103DE000029B1B798DF81530029B5B798DF816309C
:103DF000029B9B680693029B1B7B8DF81C30029BE9
:103E00005B7B8DF81D30039B181D019B002B01D09F
:103E1000084A00E00022099B04A901F0BBFA0890BF
:103E2000089B18460AB010BDBC070020CC07002034
:103E300008F70200313D010082B003468DF80730DB
:103E40009DF90730002B0CDB9DF8073003F01F02B3
:103E500005499DF907305B09012000FA02F241F89B
:103E6000232000BF02B0704700E100E082B00346AB
:103E700000918DF807309DF90730002B0ADB009B7D
:103E8000DAB20C499DF907305201D2B20B4483F8E3
:103E900000230BE0009BDAB207499DF8073003F0DE
:103EA0000F03043B5201D2B20B441A7600BF02B09A
:103EB000704700BF00E100E000ED00E082B001903B
:103EC000019B1B0B5BB2184602B0704700B583B074
:103ED00003460A468DF8073013468DF806309DF8E4
:103EE00006209DF9073011461846FFF7BFFF00BFB7
:103EF00003B05DF804FB00B583B003468DF80730CE
:103F00009DF907301846FFF797FF00BF03B05DF833
:103F100004FB00B583B00346ADF80630BDF80630AB
:103F2000184600F026F803461B68012B0CBF01233E
:103F30000023DBB2184603B05DF804FB00B585B082
:103F40000346ADF80630BDF80630184600F011F80B
:103F500003461A4600231360BDF80630184600F0E9
:103F600008F803461B680393039B00BF05B05DF888
:103F700004FB82B00346ADF80630BDF8063003F10D
:103F8000804303F5C043184602B0704782B00190E9
:103F9000034A019BC2F8043300BF02B0704700BF60
:103FA0000060004082B00190034A019BC2F80833D0
:103FB00000BF02B0704700BF0060004082B00190B7
:103FC000034BD3F80423019B1340184602B07047FB
:103FD0000060004082B00190084A019B03F5A27383
:103FE00052F82330054943F00102019B03F5A27307
:103FF00041F8232000BF02B0704700BF00600040BE
:1040000082B00190084A019B03F5A27352F8233055
:10401000054923F00102019B03F5A27341F8232017
:1040200000BF02B0704700BF0060004084B0039042
:10403000029113468DF80730144A039B03F5A273CF
:1040400052F82330114923F44F3323F44073039A79
:1040500002F5A27241F822300C4A039B03F5A273C9
:1040600052F82320029B1B0203F47C519DF8073079
:104070001B0403F440330B4304491A43039B03F529
:10408000A27341F8232000BF04B0704700600040D5
:1040900082B00190054A019B03F5A27352F82330C8
:1040A0001B0A03F03F03184602B07047006000404F
:1040B00082B00190064A019B03F5A27352F82330A7
:1040C0001B0C03F00303DBB2184602B0704700BFBD
:1040D0000060004084B00390029111461A460B46DE
:1040E0008DF8073013468DF80630184A039B03F508
:1040F000A27352F82330154923F4991323F4F8538B
:10410000039A02F5A27241F82230104A039B03F58C
:10411000A27352F82320029B1B0203F47C519DF8EA
:1041200007301B0403F4403319439DF806301B0588
:1041300003F480130B4305491A43039B03F5A27351
:1041400041F8232000BF04B0704700BF006000406A
:1041500082B00190019B1B681F2B02D84FF0A04337
:1041600006E0019B1B6803F01F02019B1A60024BD3
:10417000184602B0704700BF0003005000B585B07C
:104180000190084611461A4603468DF803300B4647
:104190008DF8023013468DF8013001AB1846FFF759
:1041A000D7FF03909DF803209DF802305B001A436F
:1041B0009DF801309B001A439DF818301B0242EA1B
:1041C00003019DF81C301B04019A1943039B02F55F
:1041D000E07243F8221000BF05B05DF804FB00B5A3
:1041E00085B0039000230193002300930023012254
:1041F00001210398FFF7C2FF00BF05B05DF804FB83
:1042000000B585B003900B468DF80B309DF80B3050
:104210000022019200220092002200210398FFF761
:10422000ADFF00BF05B05DF804FB00B585B001909F
:1042300001AB1846FFF78CFF0390019A039B02F530
:10424000E07253F8223023F002030293019A039B99
:1042500002F5E072029943F8221000BF05B05DF844
:1042600004FB00B585B001900B468DF8033001AB1F
:104270001846FFF76DFF0390019A039B02F5E07269
:1042800053F82230019A23F44031039B02F5E07287
:1042900043F82210019A039B02F5E07253F82210B2
:1042A0009DF803301B04019A1943039B02F5E07249
:1042B00043F8221000BF05B05DF804FB00B585B0DF
:1042C000019001AB1846FFF743FF0390019B0122C9
:1042D00002FA03F31946039800F06DF800BF05B029
:1042E0005DF804FB00B585B0019001AB1846FFF7FF
:1042F0002FFF0390019B012202FA03F31946039852
:1043000000F063F800BF05B05DF804FB00B585B0B0
:10431000019001AB1846FFF71BFF0390039BD3F8F6
:1043200004350293029BDA43019B012101FA03F356
:104330001A40039BC3F80825019B01229A40029B67
:104340001A40039BC3F80C2500BF05B05DF804FBC1
:1043500000B585B0019001AB1846FFF7F9FE039058
:10436000039800F020F80246019B22FA03F303F0C1
:104370000103184605B05DF804FB00B585B0019057
:1043800001AB1846FFF7E4FE0390019A039B02F588
:10439000E07253F822301B0C03F00303DBB2184623
:1043A00005B05DF804FB82B00190019BD3F8103595
:1043B000184602B0704782B001900091019B009AAC
:1043C000C3F8082500BF02B0704782B00190009189
:1043D000019B009AC3F80C2500BF02B07047000093
:1043E00088B0039002910192164A05AB92E803004F
:1043F00083E80300039B079319E0079B9B0020338E
:104400006B4453F80C3CD3F82025019B1A60079BA2
:104410009B0020336B4453F80C3C019A1268C3F89C
:104420002025019B04330193079B01330793039AD3
:10443000029B1344079A9A42DFD300BF00BF08B023
:10444000704700BF20F7020000B585B0019001ABB6
:104450001846FFF77DFE0390019B012202FA03F349
:104460001A46039BC3F8202500BF05B05DF804FB86
:1044700084B00190019B5B09029300230393029B8C
:10448000002B03D0029B012B04D007E04FF0FF3339
:10449000039303E04FF6FF73039300BF019B03F008
:1044A0001F030193039A019B22FA03F303F0010314
:1044B000DBB2184604B0704784B001900091009BB5
:1044C0000393019BDB080293019B03F00703019315
:1044D0000122019B02FA03F30399029A0A4412781B
:1044E0001340184604B0704784B001900091009BBF
:1044F0000393019BDB080293019B03F007030193E5
:10450000039A029B13441B785AB20121019B01FAC2
:1045100003F35BB2134359B2039A029B1344CAB22A
:104520001A7000BF04B0704782B00190074A019B27
:104530001344243393F90030B3F1FF3F14BF012338
:104540000023DBB2184602B0704700BFDC07002032
:1045500082B001900C4A019B1344243393F900303C
:10456000002B09DB084A019B1344243393F90030E4
:10457000072B01DC012300E0002303F00103DBB281
:10458000184602B0704700BFDC07002082B00190DF
:10459000064A019B1344243393F90030072BCCBF08
:1045A00001230023DBB2184602B07047DC0700206D
:1045B00082B00190064A019B1344243393F90030E2
:1045C000DB43DBB2DB09DBB2184602B0704700BF49
:1045D000DC07002084B00390029101928DF8033033
:1045E000029B59B20E4A039B134424330A461A70A5
:1045F0000B49029B019A41F823209DF8033083F078
:104600000103DBB2002B08D0029B083B039A51B296
:10461000034A13440A4683F8542000BF04B070478D
:10462000DC07002082B00190044A019B134424332C
:10463000FE221A7000BF02B0704700BFDC070020E6
:1046400082B00190044A019B13442433FF221A7064
:1046500000BF02B0704700BFDC07002000B583B088
:10466000019004490198FFF73FFF00BF03B05DF8D8
:1046700004FB00BF3108002082B00190044A019B76
:104680001344243393F90030184602B0704700BF3A
:10469000DC07002082B00190034A019B52F82330CE
:1046A000184602B0704700BFDC07002084B00190BC
:1046B000074A019B1344543393F900308DF80F30AF
:1046C0009DF80F3023F0C003184604B0704700BFB8
:1046D000DC07002084B00190074A019B1344543347
:1046E00093F900308DF80F309DF80F309B09DBB245
:1046F000184604B0704700BFDC07002000B589B041
:104700000390029113468DF80730FF238DF81F3078
:104710009DF80730002B01D0002300E0082305930B
:104720009DF80730002B01D0082300E009230493F3
:10473000059B069314E00F4A069B52F82330B3F111
:10474000FF3F0AD19DF80730029A06990398FFF7B8
:1047500041FF069B8DF81F3006E0069B0133069350
:10476000069A049B9A42E6D39DF91F30184609B079
:104770005DF804FBDC07002082B003468DF80730AB
:104780009DF80730094A4FF0FF3142F823109DF899
:104790000730072B07D99DF80730083B034A13441D
:1047A000FF2283F8542000BF02B07047DC070020CE
:1047B00000B583B02D4B93F85B30002B03D008235A
:1047C0000093009B4EE000238DF8073011E09DF828
:1047D00007301846FFF74CFE0346002B04D09DF827
:1047E00007301846FFF72CFF9DF8073001338DF88E
:1047F00007309DF807302F2BE9D900238DF80730BB
:1048000009E09DF807301846FFF7B6FF9DF807301E
:1048100001338DF807309DF80730082BF1D90622B7
:10482000002113481AF08CFD1248FFF747FB03469E
:1048300007211846FFF74AFB0E48FFF73FFB0346E8
:104840001846FFF758FB4FF4BE70FFF777FB4FF0A9
:104850000040FFF79BFB054B012283F85B20002300
:104860000093009B184603B05DF804FBDC070020B2
:10487000310800200060004000B585B00190009133
:10488000002303930198FFF74FFE0346002B02D04D
:104890000823039334E0009B9B78002B19D001225E
:1048A00000210198FFF72AFF03468DF80B309DF990
:1048B0000B30B3F1FF3F09D09DF90B00009B1A7834
:1048C000009B5B780199FFF705FC05E00423039347
:1048D00002E00198FFF7A6FE039B002B10D1009B7E
:1048E0005B78012B03D10198FFF7E8FC02E0019807
:1048F000FFF7F8FC0198FFF772FC0198FFF7AEFE96
:10490000039B184605B05DF804FB00B583B0019029
:104910000198FFF7FBFC00BF03B05DF804FB00004B
:1049200000B587B00390029101920023059303988C
:10493000FFF73EFE0346002B02D00823059358E004
:10494000029B9B78C3F34003DBB21A46019903989C
:10495000FFF7D4FE03468DF813309DF91330B3F101
:10496000FF3F44D0029B9B78C3F38003DBB283F00C
:104970000103DBB2002B13D0029B9B7803F00103F1
:10498000DBB2002B03D00398FFF74FFC05E0029B3E
:104990005B7819460398FFF733FC0398FFF75EFE38
:1049A000029B9B7803F00203DBB2002B08D09DF939
:1049B0001300029B1B781A460399FFF737FB18E098
:1049C0009DF91330083B0D4A134493F95410029B90
:1049D0001B785BB29B015AB29DF91330083B0A4326
:1049E00051B2064A13440A4683F8542001E00423D6
:1049F0000593059B184607B05DF804FBDC07002013
:104A000000B589B001900B468DF803300198FFF78F
:104A1000BDFD0346002B2AD00198FFF72DFE03466B
:104A2000083B1846FFF756FE03468DF80F309DF8F9
:104A30000F30032B0BD10198FFF78AFC0346002BA4
:104A400001D0032300E002238DF81F3008E09DF819
:104A50000F30012B01D1022300E003238DF81F301A
:104A60009DF81F3019460198FFF7FBFB30E00198D5
:104A7000FFF76EFD0346002B2AD00198FFF7FCFDDF
:104A800003460693069B9BB240339BB29B00ADF856
:104A90001630069B1846FFF79DFABDF816301846EB
:104AA000FFF74CFA9DF80330002B11D00198FFF767
:104AB000E3FD03461846FFF7EDFD0490049B002B31
:104AC00006D00122069B02FA03F31846FFF75EFAAE
:104AD00000BF09B05DF804FB00B585B001900198F6
:104AE000FFF754FD0346002B04D000210198FFF787
:104AF000B8FB15E00198FFF72BFD0346002B0FD004
:104B00000198FFF7B9FD03460393039B1846FFF78F
:104B100077FA0122039B02FA03F31846FFF742FAE1
:104B200000BF05B05DF804FB00B583B001900198AB
:104B3000FFF70EFC0346002B14BF01230023DBB25A
:104B4000184603B05DF804FB00B585B00190019AEA
:104B500002210020FFF744FC002303930BE0039B9A
:104B60009B00019A13441B68002B01D0012306E02F
:104B7000039B01330393039B012BF0D900231846B9
:104B800005B05DF804FB000000B587B0019000237C
:104B900005935BE0344A059B1344543393F900308A
:104BA000B3F1FF3F4ED00598FFF780FD04900199C7
:104BB0000498FFF781FC0346002B44D00598FFF7CB
:104BC00089FD03468DF80F300498FFF7D6FB0346A6
:104BD0008DF80E309DF80E30022B01D1032300E03A
:104BE00002238DF80D309DF80D3019460498FFF71B
:104BF00038FB0498FFF728FC0498FFF73DFD0346B7
:104C00001846FFF747FD0290029B002B1BD09DF832
:104C10000F30032B0FD09DF80E30022B03D19DF8DF
:104C20000F30012B07D09DF80E30032B0BD19DF8D0
:104C30000F30022B07D19DF80F20029B11460498DC
:104C4000984700E000BF059B01330593059B002BAF
:104C5000A0D00198FFF778FF0346002B97D100BF43
:104C600000BF07B05DF804FBDC07002000B58BB087
:104C70000023089301AB00221A605A604FF480733E
:104C8000ADF81A30012309930023079321E0BDF802
:104C90001A301846FFF73DF90346002B0ED009984D
:104CA000FFF78CF90346002B08D0BDF81A301846E0
:104CB000FFF744F9089A099B13430893099B5B008B
:104CC0000993BDF81A300433ADF81A30079B01334D
:104CD0000793079B072BDAD94FF4BE70FFF719F93A
:104CE0000346002B0DD04FF4BE70FFF727F9089B49
:104CF00043F00043089301AB1A4602210020FFF75E
:104D00006FFB089BDBB2002B29D001230993002302
:104D1000079321E0099A089B1340002B16D00798AF
:104D2000FFF7B6F905900798FFF7C2F903468DF82B
:104D300013300798FFF7AEFC0390039B002B05D0C0
:104D40009DF81320039B114605989847099B5B002B
:104D50000993079B01330793079B072BDAD9089B1D
:104D6000002B03DA01AB1846FFF70EFF00BF0BB0B4
:104D70005DF804FB08B5024B1B68984708BD00BFEF
:104D80003808002082B00190019B044A934201D16F
:104D9000034B00E00023184602B07047002000409B
:104DA0003808002000B587B0019000910198FFF706
:104DB000E9FF0390039B002B1ED000238DF81730D2
:104DC000002000F0B1FE039B1B79002B03D00123D0
:104DD0008DF8173005E0039B009A1A60039B0122AF
:104DE0001A71002000F0A9FE9DF81730002B03D0A7
:104DF00011230493049B02E000230493049B1846B0
:104E000007B05DF804FB00B585B001900198FFF78D
:104E1000B9FF0390039B002B05D0039B00221A606F
:104E2000039B00221A7100BF05B05DF804FB00006F
:104E300082B003468DF807309DF90730002B0CDB5C
:104E40009DF8073003F01F0205499DF907305B0903
:104E5000012000FA02F241F8232000BF02B070479F
:104E600000E100E082B003468DF807309DF907307D
:104E7000002B13DB9DF8073003F01F0209499DF951
:104E800007305B09012000FA02F2203341F82320A9
:104E9000BFF34F8F00BFBFF36F8F00BF00BF02B0E3
:104EA000704700BF00E100E082B0034600918DF83A
:104EB00007309DF90730002B0ADB009BDAB20C4962
:104EC0009DF907305201D2B20B4483F800230BE066
:104ED000009BDAB207499DF8073003F00F03043B4B
:104EE0005201D2B20B441A7600BF02B0704700BF25
:104EF00000E100E000ED00E082B00190019B03F0D2
:104F00006043B3F1005F0CBF01230023DBB21846FE
:104F100002B0704782B00190019B1B0B5BB2184638
:104F200002B0704700B583B003460A468DF80730DB
:104F300013468DF806309DF806209DF9073011467E
:104F40001846FFF7B1FF00BF03B05DF804FB00B5E2
:104F500083B003468DF807309DF907301846FFF7F8
:104F600067FF00BF03B05DF804FB00B583B00346E4
:104F70008DF807309DF907301846FFF773FF00BF23
:104F800003B05DF804FB82B001900B468DF803304E
:104F90009DF80330019A134401221A6000BF02B049
:104FA000704784B001900B46ADF80230BDF8023076
:104FB000019A134400221A60BDF80230019A13448A
:104FC0001B680393039B00BF04B0704782B001903D
:104FD0000B46ADF80230BDF80230019A13441B684D
:104FE000002B14BF01230023DBB2184602B0704728
:104FF00082B001900091019B009AC3F8042300BF86
:1050000002B0704782B001900091019B009AC3F8F2
:10501000082300BF02B0704782B00190019B0722B5
:10502000C3F8002500BF02B0704782B00190019B19
:105030000022C3F8002500BF02B0704784B003907F
:10504000029101920093039B029AC3F80825039BE7
:10505000019AC3F80C25039B009AC3F8102500BFE2
:1050600004B0704782B001900091009A019BC3F890
:10507000242500BF02B0704784B0039002910192D2
:10508000029A039BC3F84425039B019AC3F8482561
:1050900000BF04B0704784B0039002910192029A5D
:1050A000039BC3F83425039B019AC3F8382500BF3E
:1050B00004B0704784B001900B468DF8033013465E
:1050C0008DF802309DF80230002B14BF012300231D
:1050D000DBB203939DF80330032B10D0032B13DCBA
:1050E000012B02D0022B05D00EE0039B43F00203FC
:1050F00003930AE0039B43F00403039305E0039B3F
:1051000043F00603039300E000BF019B039AC3F83A
:10511000542500BF04B0704782B001900B468DF853
:1051200003309DF80320019BC3F8C02500BF02B0E7
:10513000704782B00190019B0122C3F8502500BF47
:1051400002B0704782B00190019B0022C3F8502545
:1051500000BF02B0704782B00190019B0122C3F8EA
:10516000402500BF02B0704782B00190019B002231
:10517000C3F8402500BF02B07047000082B0019024
:10518000019B1B681F2B02D84FF0A04306E0019B38
:105190001B6803F01F02019B1A60024B184602B005
:1051A000704700BF0003005000B585B0019008466D
:1051B00011461A4603468DF803300B468DF802302F
:1051C00013468DF8013001AB1846FFF7D7FF039067
:1051D0009DF803209DF802305B001A439DF80130D2
:1051E0009B001A439DF818301B0242EA03019DF808
:1051F0001C301B04019A1943039B02F5E07243F82B
:10520000221000BF05B05DF804FB00B585B0039027
:10521000002301930023009300230122012103981E
:10522000FFF7C2FF00BF05B05DF804FB00B585B015
:1052300003900B468DF80B309DF80B300022019245
:1052400000220092002200210398FFF7ADFF00BF6B
:1052500005B05DF804FB00B585B003900023019311
:10526000002300930023012200210398FFF79CFFF5
:1052700000BF05B05DF804FB00B585B0019001AB3F
:105280001846FFF77BFF0390019B012202FA03F30C
:105290001946039800F018F800BF05B05DF804FB4C
:1052A00000B585B0019001AB1846FFF767FF03908A
:1052B000019B012202FA03F31946039800F00EF84D
:1052C00000BF05B05DF804FB82B001900091019B26
:1052D000009AC3F8082500BF02B0704782B0019061
:1052E0000091019B009AC3F80C2500BF02B07047E3
:1052F00086B0019000911E4B1B681E4A1360009BF4
:10530000002B31D0019B009A13440293019B23F49C
:10531000FF5323F01F030593059B5B0B9BB20122F8
:1053200002FA03F3049300230393059B124A93426A
:1053300003D94FF48073039312E0039A049B134341
:105340000393049B5B000493059B03F500530593B3
:10535000059A029B9A4203D2059B084A9342ECD3DA
:10536000034A039B136000E000BF06B0704700BF14
:10537000000E0040AC080020FFFF002000200120AC
:10538000024A034B1B68136000BF7047000E0040C9
:10539000AC08002000B58DB00590049103920293F3
:1053A000059B1B791A461346DB0013449B00664A93
:1053B00013440A930A9B1B7F002B03D008230793F7
:1053C000079BBDE0059B1B680993059B1A68059B1D
:1053D0001B7919465D4B53F8213019461046FFF7EB
:1053E000E1FC0346002B03D011230793079BA7E0A2
:1053F0000A9B039A1A600A9B029A5A60049B1B7BC1
:10540000012B05D8049B1B781846FFF749FF04E0E1
:10541000049B1B781846FFF72FFF049B1B78184648
:105420000023019300230093002300220121FFF7B2
:10543000BBFE049B5B78FF2B09D0049B5B780B932E
:105440000B98FFF72DFF0B98FFF7DFFE02E04FF000
:10545000FF330B93049B9B78FF2B07D0049B9B7817
:10546000089301210898FFF7E1FE02E04FF0FF33B7
:105470000893049B9A780A9B83F82020049BDA788F
:105480000A9BDA77049BDB78FF2B17D0049B1B79F0
:10549000002B05D0049BDB781846FFF701FF04E0E2
:1054A000049BDB781846FFF7E7FE049BDB78184681
:1054B000FFF7ABFE049B1A790A9B9A77049B1B7833
:1054C0001946089B0B9A0998FFF7B8FD049B9B6847
:1054D00019460998FFF7C6FD049B197B049B5B7B6B
:1054E0001A460998FFF7E6FD049B9B79194609982F
:1054F000FFF712FE0998FFF78FFD0A9B1B68002B30
:1055000015D0059B1B681846FFF704FD03461A4695
:10551000049B5B7919461046FFF704FD059B1B6849
:105520001846FFF7F7FC03461846FFF710FD0A9BE5
:1055300000225A770A9B01221A7700230793079BC0
:1055400018460DB05DF804FB400800203CF702004F
:1055500000B585B00190019B1B791A461346DB000C
:1055600013449B00294A13440393039B1B68002B9D
:1055700008D0019B1B681846FFF7CCFC0346184671
:10558000FFF7F3FC019B1B680293039B1B68002B36
:105590001BD01F490298FFF735FD039B5B7FDBB2F1
:1055A000002B12D014210298FFF7EDFC00BF4FF43E
:1055B00082710298FFF70AFD034683F00103DBB214
:1055C000002BF4D1039B00225A77039B93F82030E1
:1055D000FF2B05D0039B93F820301846FFF73BFEC6
:1055E0000298FFF722FD029B0A4A934202D10A4B1E
:1055F00001221A60019B1B681846FFF704FC039BFD
:1056000000221A7700BF05B05DF804FB40080020B7
:105610005201080000F0024004F0024000B583B0DF
:105620000190019BDB7FFF2B0ED0019B9B7F002B0A
:1056300005D0019BDB7F1846FFF732FE04E0019B9B
:10564000DB7F1846FFF718FE019B00225A77019B6B
:1056500000221A72019B1B68019A02F10800019A4C
:1056600052681146984700BF03B05DF804FB00B5CF
:1056700083B001900B468DF803309DF8033083F022
:105680000103DBB2002B04D040210198FFF7BAFCE4
:1056900003E040210198FFF7ABFC00BF03B05DF8C9
:1056A00004FB00B583B001900091009B03F001035F
:1056B000002B03D00198FFF73CFD02E00198FFF7B3
:1056C00041FD009B03F00203002B03D00198FFF77C
:1056D00042FD02E00198FFF747FD00BF03B05DF80F
:1056E00004FB000000B587B0039002910192009383
:1056F000019B1B68002B0AD0019B1B681846FFF713
:10570000FBFB034683F00103DBB2002B0ED1019BB0
:105710009B68002B11D0019B9B681846FFF7ECFBA0
:10572000034683F00103DBB2002B06D0029B00226C
:105730005A7710230593059B66E0019B1968019B2E
:105740005B681A460398FFF797FC019B9968019BD9
:10575000DB681A460398FFF79EFC039B2C4A934292
:1057600007D1019B1A68019B5B6819461046FFF739
:10577000BFFD4FF48C710398FFF713FC0099039859
:10578000FFF78FFF009B03F00803002B03D11021CC
:105790000398FFF7F8FB029B1B68002B25D100BF85
:1057A0004FF48C710398FFF711FC034683F001035B
:1057B000DBB2002BF4D1039B154A934201D1FFF7D2
:1057C000DFFD029BDB7FFF2B1BD0029B9B7F002B0F
:1057D00005D0029BDB7F1846FFF762FD11E0029BBC
:1057E000DB7F1846FFF748FD0BE0009B03F0040346
:1057F000002B0CBF01230023DBB219460398FFF7EF
:1058000036FF00230593059B184607B05DF804FB9F
:1058100000F0024010B586B0039002910192039B04
:105820001B791A461346DB0013449B001F4A13449E
:10583000049300230593049B5B7FDBB2002B03D012
:1058400011230593059B2EE0049B1B68002B07D0BA
:10585000019B03F01403002B02D1049B01225A7711
:10586000049B029A03F10C0413460FCB84E80F004B
:10587000049BDB7FFF2B0ED0049B9B7F002B05D06E
:10588000049BDB7F1846FFF7F7FC04E0049BDB7FFB
:105890001846FFF705FD039B1868019B029A0499BF
:1058A000FFF720FF0346184606B010BD4008002051
:1058B00000B583B0019000914FF48C710198FFF70F
:1058C00085FB0346002B0DD0019B084A934201D172
:1058D000FFF756FD4FF48C710198FFF762FB0098BB
:1058E000FFF79CFE00BF03B05DF804FB00F0024030
:1058F00008B503490348FFF7DBFF00BF08BD00BF41
:10590000400800200030004008B503490348FFF775
:10591000CFFF00BF08BD00BF640800200030024078
:1059200008B503490348FFF7C3FF00BF08BD00BF28
:105930008808002000F0024086B003900291019296
:1059400001238DF817309DF81730204A039B136010
:105950001E4A029B53601D4A019B9360039B44F2C5
:105960000102934212D0039B44F20202934220D1DF
:10597000019B164AD360154BDB681B68134A936181
:10598000124BDB685B68114AD36112E0019B0F4A3E
:1059900013610E4B1B699B680C4A53610B4B1B69CF
:1059A0001B680A4A9361094B1B695B68074AD3610C
:1059B00000BF72B600BF00BF9DF81730DBB2002BEE
:1059C000FAD162B600BF00BF06B07047B008002031
:1059D00000B583B002900091019244F2010071463B
:1059E0006A4600F003F803B000BD00BF30B58BB0CD
:1059F00007900691059272B600BF00F005FE00F018
:105A000033FC0346002BFAD1079B44F20102934278
:105A100016D0079B44F2020293423ED1059B0993A4
:105A20002C4A2D4BD31ADB081B0443F00100099BC1
:105A30005B681A46099B1B68284900F0D8FB39E0CF
:105A4000059B0893234A244BD31ADB081B0443F01D
:105A50000104089B9D68089B9B68184600F042FF64
:105A600003461846089B5B681946089B1B68069A04
:105A700002920193009103462A461949204600F0FC
:105A8000CAFB144A144BD31ADB081B0443F001036E
:105A90001449184600F08CFB0CE00E4A0E4BD31A4A
:105AA000DB081B0443F00103069A0F49184600F077
:105AB0008DFB00BF0D4B1B6803F00103002B00D0D2
:105AC00000BE059A06990798FFF736FF00BF0BB096
:105AD00030BD00BF8CF402006CF4020048F70200F5
:105AE00064F702008CF70200A0F70200F0ED00E07E
:105AF00072B600BF034B1B680133024A136000BF3C
:105B0000704700BFD0080020064B1B68013B054AC8
:105B10001360044B1B68002B01D162B600BF00BFAD
:105B2000704700BFD008002000B583B00190FFF798
:105B3000DFFF00BF03B05DF804FB00B583B0034690
:105B40008DF80730FFF7E0FF00BF03B05DF804FBFE
:105B500010B487B001900091019B009A53E8004F68
:105B6000104643E8000191F0000FF7D1059404902E
:105B70000391059B184607B05DF8044B704710B4BD
:105B800087B001900091019B009A53E8004F44EACE
:105B9000020043E8000191F0000FF6D10594049053
:105BA0000391049B184607B05DF8044B704710B48E
:105BB00087B001900091019B009A53E8004F04EADE
:105BC000020043E8000191F0000FF6D10594049023
:105BD0000391059B184607B05DF8044B704710B45D
:105BE00087B001900091019B009A53E8004F04EBAD
:105BF000020043E8000191F0000FF6D105940490F3
:105C00000391049B184607B05DF8044B704710B42D
:105C100087B001900091019B009A53E8004FA4EBDC
:105C2000020043E8000191F0000FF6D105940490C2
:105C30000391049B184607B05DF8044B704700B50C
:105C400083B0019001210198FFF799FF03461846A0
:105C500003B05DF804FB00B583B00190002101980A
:105C6000FFF7A5FF0346184603B05DF804FB82B0BA
:105C700001900B468DF80330019BDA689DF80330E4
:105C80000199098A01FB03F31344184602B07047D7
:105C900082B001900091009B019AD2689B1A019AF0
:105CA000128AB3FBF2F3DBB2184602B0704700B5BC
:105CB00085B00190002303930020FFF735FF019B7F
:105CC0001B681A68019B5B689A421FD9019B1B687D
:105CD0001A68013A1A601B681B7819460198FFF789
:105CE000C6FF0390019B9A68019B1B681B68D31A2F
:105CF0008DF80B30019B1B681B799DF80B209A4295
:105D000004D9019B1B689DF80B201A710020FFF736
:105D100014FF039B184605B05DF804FB10B584B072
:105D200001900091009B03930020FFF7FDFE019B73
:105D30001B681C68621C1A6003990198FFF7A8FF92
:105D4000034623700020FFF7F8FE00BF04B010BD2B
:105D500000B583B001900091019B1B681B680099FE
:105D60000198984700BF03B05DF804FB00B583B00D
:105D70000190019B1B685B680198984700BF03B0C6
:105D80005DF804FB00B583B00190019B1B689B6824
:105D90000198984700BF03B05DF804FB82B0019002
:105DA000019BDB6801225A7100BF02B0704782B0CC
:105DB0000190019BDB685B79184602B0704784B0A4
:105DC0000190009100238DF80F30019B1B7803F0A8
:105DD0000403DBB2002B24D0019B1B78C3F3010327
:105DE000DBB2012B02D0022B0CD017E0009B1B680A
:105DF000019A1288C2F38312D2B213449A1C009BF8
:105E00001A600BE0009B1B68019A5288C2F389124A
:105E100092B213449A1C009B1A6000BF01238DF8B4
:105E20000F309DF80F30184604B0704700B58BB0A6
:105E30000023ADF826303B48FFF701FF3A48FFF753
:105E4000FEFE3A4B9B680493394B1B680693049AF9
:105E5000069B134002339B00344A134404330893D7
:105E600004AB19460898FFF7AAFF0346002B09D098
:105E7000049A069B134002339B002C4A13440433BC
:105E80000893EDE700BF0023079311E0049B5A1C21
:105E90000492069A1340079A920001A90A442349E2
:105EA00002339B000B445B681360079B013307932D
:105EB000079B012BEAD99DF80430C3F30103DBB241
:105EC000012B10D0022B1CD1BDF80A30ADF82630C2
:105ED000BDF80630C3F389139BB203339A08049BC1
:105EE000134404930EE0BDF80A30ADF82630BDF837
:105EF0000430C3F38313DBB21A46049B13440493A8
:105F000000E000BF0848FFF7A6FE0590059B002BA8
:105F100002D0049B054A9360BDF8263018460BB0AA
:105F20005DF804FBBC0D0020B80D0020A409002082
:105F30008800002000B585B000210748FFF708FE63
:105F40000390039B0293029B83F310030193019B35
:105F5000184605B05DF804FBC00D002000B589B0FF
:105F60000390029101920093039B1B0C0693FFF791
:105F7000E1FF0790079B1904009B5A1C0A9B1340E2
:105F8000069A0A431B4902339B000B445A60009A4D
:105F90000A9B134002339B00164A134404330593B3
:105FA000039B03F00703D9B2059A137861F3C50385
:105FB0001370019B03F00F03D9B2059A138861F3A4
:105FC00089131380029BC3F31501059A136861F3CB
:105FD0009F231360059A1378012161F30103137065
:105FE000059A137823F00403137000BF09B05DF81D
:105FF00004FB00BFA409002000B58BB00390029100
:1060000013468DF80730039B0233089301238DF864
:106010001F300020FFF788FD3E4B5A68029B1A6034
:106020003D4B1A683B4B99683A4B5B68CB1A13445B
:106030000133099314E001213848FFF7D0FDFFF741
:10604000F5FE059005993548FFF7C9FD324B1A68F2
:10605000304B99682F4B5B68CB1A1344013309937B
:10606000089A099B9A42E6D89DF81F30002B48D029
:10607000002304939DF80730002B17D09DF81030B3
:10608000012262F301038DF810309DF8103043F0C7
:1060900004038DF81030039B03F00F03DAB2BDF850
:1060A000103062F38913ADF8103016E09DF810300F
:1060B000022262F301038DF810309DF8103043F096
:1060C00004038DF81030039BC3F309039AB2BDF8A3
:1060D000123062F38F13ADF812300E4B5A680E4B2C
:1060E0001B68134002339B000A4A1344043306938F
:1060F000049A069B1A60074B5A68089B1344054A8A
:1061000053600020FFF719FD9DF81F3018460BB0B3
:106110005DF804FBA409002088000020C00D0020C9
:1061200000B58BB005900491039202931E4B1B683F
:10613000079306AB012219460298FFF75DFF03465D
:10614000002B24D0069B023309930023089311E00F
:10615000089B9B00039A1A44099B591C09910799B3
:106160000B401268114902339B000B445A60089B94
:1061700001330893089A029B9A42E9D3069A079B37
:1061800000931346029A04990598FFF7E7FE074B20
:106190001B78002B04D000F067F80346002BFAD1DF
:1061A00000BF0BB05DF804FB88000020A4090020AC
:1061B00000B583B00190009100230022009901985E
:1061C000FFF7AEFF00BF03B05DF804FB00B587B07A
:1061D000039002910192019B059305AA0123029964
:1061E0000398FFF79DFF00BF07B05DF804FB00B503
:1061F00087B00390029101920093019B0493009B4E
:10620000059304AA022302990398FFF789FF00BFB0
:1062100007B05DF804FB00B58BB0039002910192CA
:106220000093019B0593009B06930C9B07930D9B8A
:1062300008930E9B099305AA052302990398FFF77B
:106240006FFF00BF0BB05DF804FB0000054B9A68C0
:10625000044B5B689A420CBF01230023DBB2184653
:10626000704700BFA409002000B599B0FFF7EEFF0A
:106270000346002B01D00023B9E19B4B0022C3F859
:106280001824BFF34F8F00BF974B9B680493974B25
:106290001B681093049A109B134002339B00924A90
:1062A0001344043311930023179300231693002300
:1062B0000F9304AB19461198FFF781FD0346002B9D
:1062C00019D0894BD3F81834002B14D1864B5A6857
:1062D000049B9A4205D8844B5B68834A93600023F1
:1062E00085E1049A109B134002339B007E4A1344BD
:1062F00004331193DDE70023159311E0049B5A1C2E
:106300000492109A1340159A920001A90A44764902
:1063100002339B000B445B681360159B013315939C
:10632000159B012BEAD99DF8043003F00303DBB27F
:10633000022B40F09C80BDF80630C3F389139BB25A
:106340000D93BDF80630C3F389139BB2502B28BFC1
:1063500050239BB20C930C9BC3F309039AB2BDF874
:10636000063062F38F13ADF806300C9B08330B93A5
:106370009DF80430C3F3C203DBB20F930B995C4862
:1063800000F060F91790179B002B00F0D38017984E
:1063900000F0E9F901A9169B0822179800F08DFA80
:1063A000169B08331693049BDA43109B134001336A
:1063B0009B000A930C9A0A9B9A4242D90A9B002B93
:1063C00008D0049A109B134002339B00464A1344A2
:1063D000043300E0474B08930A9B002B02D00A9B32
:1063E000DBB201E00C9BDBB28DF81F300A9B002B67
:1063F00001D0404B00E0002306930A9B002B06D0FF
:106400000C9BDAB20A9BDBB2D31ADBB200E00023AA
:106410008DF817309DF81F20169B0899179800F0EB
:106420004CFA9DF81F30169A13441693069B002BC6
:1064300016D09DF81720169B0699179800F03DFA84
:106440000EE0049A109B134002339B00264A13442B
:1064500004330993169B0C9A0999179800F02DFAAA
:106460000D9B03339A08049B1344049362E09DF848
:10647000043003F00303DBB2012B5BD1BDF8043021
:10648000C3F38313DBB2062B28BF0623DAB2BDF8B1
:10649000043062F38913ADF80430BDF80430C3F35F
:1064A0008313DBB202330E939DF80430C3F3C203AF
:1064B000DBB20F930E9B9B0019460D4800F0C2F80B
:1064C0001790179B002B35D0179800F04CF901A9B5
:1064D000169B0822179800F0F0F9169B08331693C4
:1064E000002315931DE000BFA409002088000020B0
:1064F000680F0020B0090020049B5A1C0492109AD7
:10650000134002339B003C4A1344191D169B04227E
:10651000179800F0D2F9169B04331693159B01339C
:106520001593BDF80430C3F38313DBB21A46159BF1
:106530009342E1D3179B002B39D02F4BD3F8103463
:1065400014932D4BD3F81834002B1BD0179800F060
:1065500019F946E000238DF84F301498FFF727FC17
:106560000346002B02D001238DF84F309DF84F30A9
:10657000002B03D017991498FFF7EAFB149BDB68F4
:106580001B681493149B002BE4D1179800F0FAF8C1
:106590000020FFF7C9FA184BD3F81834002B02D1AA
:1065A000049B154A93600020FFF7C7FA19E0124BCD
:1065B000D3F81034129306E01298FFF7E3FB129B16
:1065C000DB681B681293129B002BF5D10B4A0C4B16
:1065D000D31ADB081B0443F002030A491846FFF7ED
:1065E000E7FDFFF733FE034683F00103DBB21846F5
:1065F00019B05DF804FB00BFA40900208CF4020070
:106600006CF40200BCF7020000B583B00C4BD3F869
:10661000103401930A4B01221A7009E00198FFF728
:10662000BDFB0198FFF7A2FB019BDB681B68019390
:10663000019B002BF2D100BF00BF03B05DF804FB4B
:10664000A409002000B58BB001900091019B1B8A2A
:10665000043B0793009A079B1344DA1C079BB2FB89
:10666000F3F38DF81B300198FFF721FB0590059B94
:10667000002B01D1002338E0059B00221A71059BF5
:1066800001225A71079B9AB2059BDA80059B0993F8
:106690009DF81B30013B0493099B019A1A6000236B
:1066A00008931DE00198FFF702FB0390039B002B6A
:1066B0000ED0059B5B790133DAB2059B5A71099BB9
:1066C000039A1A60039B019A1A60039B099304E0E2
:1066D000059800F00EF8002307E0089B01330893AB
:1066E000089A049B9A42DDD3059B18460BB05DF8CF
:1066F00004FB00B58BB00190019B0793079B5B796E
:106700008DF81B30019B08939DF81B30013B0593CE
:106710000023099305E0089B1B680893099B01333C
:106720000993099A059B9A42F5D3089B1B68049329
:10673000019B0893002309930BE0089B1B680393BC
:1067400008990498FFF7EAFA039B0893099B013321
:1067500009939DF81B30099A9A42EED300BF00BFFF
:106760000BB05DF804FB00B585B00190019B03936D
:10677000039B043301211846FFF731FA00BF05B02F
:106780005DF804FB00B587B00190019B0593059B64
:10679000043301211846FFF73AFA0346039303AB8B
:1067A0000493049B1B78002B02D10198FFF7A1FFF3
:1067B00000BF07B05DF804FB00B591B003900291F3
:1067C00001920093039B0993039B0F93099BDB8822
:1067D0001A46099B5B7902FB03F3043B0893099B70
:1067E000DB880793009B1A1D079BB2FBF3F30E9304
:1067F000009B0433079AB3FBF2F2079901FB02F204
:106800009B1A0D93019B1A68009B1344089A9A42A5
:1068100003D2089A009BD31A01E0019B1B680C93DA
:10682000019B0C9A1A6005E00F9B1B680F930E9B4F
:10683000013B0E930E9B002BF6D100230B93079A7E
:106840000D9BD31A0A930A9A0C9B934228BF1346B6
:106850000A932AE0029A0B9B134406930F9A0D9B0E
:106860001344043305939DF84830002B05D00A9A51
:106870000599069818F032FD04E00A9A06990598E1
:1068800018F02CFD00230D930F9B1B680F930C9A9F
:106890000A9BD31A0C930B9A0A9B13440B93079AE7
:1068A0000C9B934228BF13460A930C9B002BD1D11B
:1068B00000BF00BF11B05DF804FB00B589B00590C2
:1068C000049103920293039B079307AA002300936A
:1068D000029B04990598FFF76FFF00BF09B05DF8B0
:1068E00004FB000000B585B00190019800F00EF89F
:1068F0000390039B002B01D0039B00E0024B184642
:1069000005B05DF804FB00BFD0F7020086B001902F
:10691000164B0593164B04931FE0049A059BD31A5C
:10692000DB10DA0F13445B10DB00059A134403936A
:10693000039B1B680293029A019B9A4202D9039B14
:1069400004930AE0029A019B9A4203D2039B083304
:10695000059302E0039B5B6804E0059A049B9A425E
:10696000DBD30023184606B0704700BFA4FB02002B
:10697000BCFC020084B001900B468DF803309DF8FA
:10698000033001330393039B084A02FB03F3DB0B41
:106990000293029B1AB2019BA3F87A20019B9DF8F7
:1069A000032083F8922000BF04B07047686602009D
:1069B00000B583B001900B468DF803309DF803308D
:1069C00000224FF40031019800F06EFA9DF8033078
:1069D00019460198FFF7CEFF019B93F891301946B5
:1069E000019801F065F900BF03B05DF804FB00BF3A
:1069F00000B583B00190019B5B68984700BF03B06E
:106A00005DF804FB10B58AB00590049111461A4652
:106A10000B46ADF80E301346ADF80C300023ADF840
:106A20002630BDF80E20049B13441B0C9BB203F0D0
:106A30001F03ADF82230049B9AB2BDF80E30134408
:106A40009BB203F07F03ADF8203000238DF8253092
:106A5000BDF822301F2B05D940F2BD12934994484E
:106A600016F0EEFDBDF820307F2B05D94FF4DF7214
:106A70008E49904816F0E4FDBDF80C30B3F5445F44
:106A800005D340F2BF1289498B4816F0D9FDBDF8F5
:106A90003430B3F5004F1BD0BDF83430002B17D085
:106AA000BDF8343048F20102934211D0BDF83430C1
:106AB00048F2020293420BD0BDF8343048F2030290
:106AC000934205D04FF4E07278497C4816F0B8FD47
:106AD000BDF922305B021AB2BDF920309B001BB217
:106AE00013431BB2ADF81E30BDF83420BDF81E3084
:106AF00013439BB21B0A9BB2DBB28DF81830BDF872
:106B00001E30DAB2BDF83430DBB203F00303DBB27F
:106B10001343DBB28DF81930BDF80C30002B1BD1BC
:106B2000BDF83430002B17D0BDF83430B3F5004F2A
:106B300005D040F2CB125D49614816F081FD049BFF
:106B4000DBB25B00DBB263F07E03DBB28DF81830A2
:106B50000123ADF826301EE0BDF82030002B10D107
:106B6000BDF83430B3F5004F03D0BDF83430002BFE
:106B700007D19DF818308DF818300123ADF8263074
:106B800009E09DF8183043F04003DBB28DF818306F
:106B90000223ADF82630BDF83430002B3BD0002B5B
:106BA00076DBA3F50043032B72D800238DF81D304C
:106BB000059B93F87C30002B22D0BDF8261006AB45
:106BC0000022184616F084FB03468DF81D30BDF8F0
:106BD0000C309DF81D2019460C9816F079FB0346E1
:106BE0008DF81D30059B1B689C68BDF80C2006A91C
:106BF000BDF826009DF81D3000930C9BA0474CE08B
:106C0000059B1B685C68BDF80C2006A9BDF8260032
:106C10000C9BA04741E0059B1B681C68BDF80C203D
:106C200006A9BDF826000C9BA047059B93F87C3075
:106C3000022B31D1049B182B2ED0BDF8261006ABA9
:106C40000022184616F044FB03468DF81C30BDF8B0
:106C50000C309DF81C2019460C9816F039FB0346A1
:106C60008DF81C3000221821059800F0B1F8034679
:106C70008DF81B309DF81C209DF81B309A420BD0DC
:106C8000059B1B6A002B07D0059B1B6A984703E0F6
:106C900001238DF8253000E000BF9DF82530002B42
:106CA00001D000BFFDE700BF0AB010BD80FE0200AA
:106CB000F8FE02000CFF020020FF020034FF020079
:106CC000CCFF020000B587B00590049111461A462A
:106CD0000B46ADF80E301346ADF80C30BDF80C1075
:106CE000BDF80E204FF400430193089B00930B4620
:106CF00004990598FFF786FE00BF07B05DF804FB16
:106D000000B587B00590049111461A460B46ADF8C0
:106D10000E301346ADF80C30BDF80C10BDF80E2047
:106D200000230193089B00930B4604990598FFF7F5
:106D300069FE00BF07B05DF804FB00BF00B58BB073
:106D4000059004911346ADF80E3000230993BDF869
:106D50000E2007AB0093042304990598FFF7D0FF9A
:106D6000032308930AE0099B1B0207A9089A0A4417
:106D7000127813440993089B013B0893089B002B4E
:106D8000F1DA099B18460BB05DF804FB00B589B039
:106D9000059004911346ADF80E300023ADF81E3077
:106DA000BDF80E2007AB0093022304990598FFF766
:106DB000A7FF9DF81D301B029BB29DF81C201344B9
:106DC000ADF81E30BDF81E30184609B05DF804FB62
:106DD00000B589B0059004911346ADF80E30BDF8AA
:106DE0000E200DF11F030093012304990598FFF76E
:106DF00087FF9DF81F30184609B05DF804FB00BFFF
:106E000000B589B00590049102931346ADF80E3099
:106E100000238DF81F300FE09DF81F30029AD2B288
:106E200020336B4403F8082C029B1B0A02939DF845
:106E30001F3001338DF81F309DF81F30032BEBD925
:106E4000BDF80E2006AB0093042304990598FFF7C4
:106E500039FF00BF09B05DF804FB00BF00B589B081
:106E60000590049111461A460B46ADF80E301346B4
:106E7000ADF80C30BDF80C30DBB28DF81C30BDF82D
:106E80000C301B0A9BB2DBB28DF81D30BDF80E2012
:106E900007AB0093022304990598FFF713FF00BF87
:106EA00009B05DF804FB00BF00B587B00590049100
:106EB00011461A460B46ADF80E3013468DF80D30CC
:106EC000BDF80E200DF10D030093012304990598E0
:106ED000FFF7F8FE00BF07B05DF804FB00B589B00E
:106EE0000590049102931346ADF80E30029BDBB27D
:106EF0008DF81830029B1B0ADBB28DF81930029B0B
:106F00001B0CDBB28DF81A30029B1B0EDBB28DF826
:106F10001B300A9BDBB28DF81C300A9B1B0ADBB2CC
:106F20008DF81D300A9B1B0CDBB28DF81E300A9BBE
:106F30001B0EDBB28DF81F30BDF80E2048F20303A4
:106F4000019306AB0093082304990598FFF75AFDB7
:106F500000BF09B05DF804FB00B589B0059004914D
:106F600011461A460B46ADF80E301346ADF80C30FC
:106F7000BDF80C30DBB28DF81C30BDF80C301B0AAC
:106F80009BB2DBB28DF81D30BDF82830DBB28DF836
:106F90001E30BDF828301B0A9BB2DBB28DF81F30C3
:106FA000BDF80E2048F20203019307AB00930423BF
:106FB00004990598FFF726FD00BF09B05DF804FBB2
:106FC00000B589B00590049111461A460B46ADF8FC
:106FD0000E3013468DF80D309DF80D308DF81C30B5
:106FE0009DF828308DF81D30BDF80E2048F20103C1
:106FF000019307AB0093022304990598FFF702FD64
:1070000000BF09B05DF804FB00B587B005900B46E2
:1070100003928DF813309DF81330002B0FD04023CE
:107020000093FF23002210210598FFF7C9FF9DF868
:107030001330022B0BD1059B039A1A6207E0002341
:107040000093BF23002210210598FFF7B9FF059B8D
:107050009DF8132083F87C2000BF07B05DF804FB87
:1070600000B585B003904FF4C07300934FF6FF73E3
:10707000002209490398FFF76FFF039B93F86C30D8
:1070800000934FF6E073002204490398FFF764FF72
:1070900000BF05B05DF804FB08000B001F001100E5
:1070A00000B585B00390039BB3F8783003F0E0039C
:1070B000A02B1CD0A02B25DC202B02D0602B0BD0CA
:1070C00020E04FF4806300936FF4C0530022104916
:1070D0000398FFF703FF16E04FF4406300936FF44B
:1070E000C05300220A490398FFF7F8FE0BE04FF463
:1070F000A05300936FF4C053002205490398FFF793
:10710000EDFE00E000BF00BF05B05DF804FB00BF6E
:1071100008000B0000B585B003900B468DF80B30CE
:107120009DF90B30052B09D1402300936FF40053D8
:1071300000220B490398FFF7D1FE0DE09DF90B30BB
:10714000092B09D14FF4015300936FF4005300222F
:1071500003490398FFF7C2FE00BF05B05DF804FBCA
:1071600008000B0082B00190019B00229A75019BE0
:1071700000221A83019B00221A77019B00225A7772
:10718000019B0022DA75019B81221A74019B002267
:107190005A74019B00229A74019B002283F83020CC
:1071A000019B00229A63019B00221A64019B00222A
:1071B0005A64019B002283F84820019B002283F837
:1071C000312000BF02B0704700B585B001900B467A
:1071D0008DF8033000230393019B93F87130002B4B
:1071E00002D14FF0FF3374E0019B93F871301B091B
:1071F000DBB203F003038DF80B30019B93F8713081
:1072000003F00F038DF80A309DF80330022B22D0D3
:10721000022B41DC002B43D0012B3DD19DF80A30DD
:107220000D2B05D89DF80A3002338DF80A3038E06E
:107230009DF80B30032B0AD09DF80B3001338DF8ED
:107240000B309DF80A30083B8DF80A3029E04FF0EA
:10725000FF33039325E09DF80A30022B0ED99DF8E9
:107260000B30032B0AD09DF80B3001338DF80B3017
:107270009DF80A30033B8DF80A3012E09DF80A3081
:10728000022B05D89DF80A3007338DF80A3008E044
:107290004FF0FF33039304E04FF0FF33039300E01C
:1072A00000BF039B002B13D19DF90B301B015AB279
:1072B0009DF90A3013435BB2DAB2019B83F8722066
:1072C000019B93F8723019464FF4867015F0DEFF7B
:1072D000039B184605B05DF804FB00BF2DE9F043A1
:1072E0008DB003900291039B60330B930B98FFF7D3
:1072F00039FF0B9B00229A730B9B0022DA73042147
:10730000039803F0DBFD0A900521039803F0D6FDF6
:1073100009900A21039803F0D1FD03461B0CDBB250
:1073200003F01F03DAB20B9B1A730B9B0A9A9A6342
:10733000099B1B0FDBB21B01DBB203F03003DAB297
:10734000099B1B0DDBB203F00F03DBB213438DF877
:1073500023309DF82330002B04D00B9B9DF8232075
:107360005A7407E04FF4867015F072FF03461A4610
:107370000B9B9A740A9B002B09D0099B002B06D00B
:107380000B9B1B7B002B02D00398FFF769FE0121AA
:107390000398FFF719FF2021039803F08FFD0346A0
:1073A000744A934203D10B9B01225A7302E00B9B58
:1073B00000225A73029BDBB203F01003002B27D18B
:1073C0000621039803F07AFD02460B9B9A600D217B
:1073D000039803F073FD034604930E21039803F012
:1073E0006DFD03460593059B0022984691464FF09C
:1073F00000024FF0000343460022049900200C468F
:10740000054642EA040643EA05070B9BC3E9006709
:10741000029BDBB203F04003002B08D10821039844
:1074200003F04CFD03461B0CDAB20B9B9A73029BD4
:107430005BB2002B07DB0921039803F03FFD0346F5
:10744000DAB20B9BDA730B9BDB7B002B02D10B9B1D
:107450008522DA730B9B9B7B002B02D10B9B742242
:107460009A731F21039803F029FD0346DAB20B9BA0
:107470001A751E21039803F021FD0346DBB203F0C9
:107480003F03DAB20B9B5A750B9B5B7D002B02D13D
:107490000B9B2E225A750B9B5B7D0022364903986D
:1074A000FFF702FD3521039803F008FD0790079BC5
:1074B000002B1ED0079B002230490398FFF7A0FC49
:1074C000079B03F080720B9B5A640B9B5B6CDA0C7E
:1074D0000B9B5A640B9B5A6C079B03F01F031A44C7
:1074E0000B9B5A64079B1B0AC3F30D020B9B1A6488
:1074F00005E00B9B0F221A640B9B0B225A640B9B1B
:1075000093F9103013F17F0F19D1039805F046F964
:107510000346ADF81A30BDF81A301B0A9BB2DBB235
:107520001946039805F0E8F9F0EE407AFDEEE77AA7
:10753000CDED017A9DF804305AB20B9B1A74104BB2
:10754000002210490398FFF75BFC002210210398EA
:10755000FFF7F4FB034603F00403002B01D00122E4
:1075600000E000220B9B83F83020002318460DB06A
:10757000BDE8F08340020010140009000400090077
:1075800067070E041800070000B585B001900B4690
:107590008DF80330002220490198FFF719FC0346BB
:1075A00003F00203002B14BF012300238DF80F30DA
:1075B00001238DF80E3015E01420FBF7DFFA0022CE
:1075C00015490198FFF704FC034603F00203002B62
:1075D00003D001238DF80F3011E09DF80E300133F8
:1075E0008DF80E309DF80E209DF803309A4206D299
:1075F0009DF80F3083F00103DBB2002BDCD19DF846
:107600000F30002B01D0002301E06FF0010318467A
:1076100005B05DF804FB00BF0C00090000B587B0A1
:10762000039002910023059302224D490398FFF72E
:10763000CFFB03468DF813309DF81330012B02D198
:10764000029B002B0DD09DF81330032B02D1029B1F
:10765000012B06D09DF81330022B04D1029B022B84
:1076600001D1012300E000238DF812309DF8123083
:1076700003F001038DF812309DF81230002B01D079
:10768000002368E09DF81330032B02D96FF0080344
:1076900061E0029B012B21D10521039804F0F2FA4D
:1076A00002230093FF23002244210398FFF788FC64
:1076B00001230093FF2301222A490398FFF780FC4E
:1076C00001230093FF23012227490398FFF778FC49
:1076D00032210398FFF758FF05903BE0029B022BF5
:1076E0001ED103230093FF23002220490398FFF7B4
:1076F00067FC4FF4000300936FF4807300221A4973
:107700000398FFF7EBFB002300937F230222164927
:107710000398FFF755FC0521039804F0B3FA19E02C
:1077200001230093FF23002210490398FFF748FC30
:107730004FF4000300936FF4807300220A4903980A
:10774000FFF7CCFB002300937F2302220649039816
:10775000FFF736FC059B184607B05DF804FB00BF39
:1077600030000F000800090008001100040011009B
:1077700000B585B003904FF4803300934FF0FF3392
:10778000002204490398FFF7A9FB00BF05B05DF88C
:1077900004FB00BF0400110000B589B005900491FE
:1077A0000392002307930023069314E0049A069B98
:1077B00022FA03F303F00103002B09D0069A1346C3
:1077C0005B001344072202FA03F3079A134307935B
:1077D000069B01330693069B082BE7D9079BD943E9
:1077E000079A039B134000930B4600224FF4A021FD
:1077F0000598FFF773FB00BF09B05DF804FB00BFFD
:1078000000B583B001900B46ADF80230BDF80230F0
:10781000002204490198FFF721FB00BF03B05DF887
:1078200004FB00BF0800050000B583B00190009183
:10783000002206490198FFF7A9FA03461A46009B61
:107840001A8000BF03B05DF804FB00BF080005000C
:1078500000B587B005900B460392ADF81230039B3C
:10786000012B0AD1BDF8123000934FF6FF730022AE
:1078700009490598FFF770FB0AE0BDF81230DB43B9
:107880009BB200220092002203490598FFF764FB97
:1078900000BF07B05DF804FB0C00050000B583B025
:1078A0000190002204490198FFF770FA0346184638
:1078B00003B05DF804FB00BF2C00050000B585B0E7
:1078C0000190009100224FF4A0210198FFF736FAB1
:1078D0000390039A144B13400393009B03F001039E
